:020000020000FC
:040000000C9420003C
:020008000001F5
:100034000C94DB210C9408260C942221F894A0E063
:100044002A2EA1E03A2EA1E0AEBFAFEFADBF2CBC8B
:100054003BBE0E94772C0E9460200E94DD2B0C94F2
:100064003400FDCF80E090E0AC014C015C01BC01A8
:100074006C017C012C01209210012EBAA8E1B1E0A0
:10008400E0E22D92EA95E9F785C2E92FF4EBF491C9
:10009400E82FF7FF8190F7FD8590F7FF9190F7FD2A
:1000A4009590029677C25ABDE92DF4EBF491E82DB0
:1000B400F7FF5193F7FD0E9454206CC2830C921CED
:1000C40069C240FB930C4FB740F92EBA63C240FBA0
:1000D40093184FB740F93EBA5DC2E92FF4EBF4919F
:1000E400E82FF7FF9190F7FD9590019653C246953E
:1000F400052F000F551F441F4F7D5CC20A0140911C
:100104001E0150911F0100921E0110921F0142C254
:100114004695680D791D441F2EBA3CC2E92DF4EBB7
:10012400F491E82DF7FF5191F7FD559133C28318EF
:10013400920830C240FB830C4FB740F92EBA2AC252
:1001440040FB83184FB740F93EBA24C2E92FF4EBC1
:10015400F491E82FF7FF8190F7FD859001961AC27C
:100164004695052F06955795441F4F7D23C26894E5
:10017400931809F4E8943FC2E92FF4EBF491E82FC3
:10018400F7FFA190F7FDA590F7FFB190F7FDB590AB
:10019400029600C25ABDEB2DF4EBF491EA2DF7FF61
:1001A4005193F7FD0E945420F5C1A30CB21CF2C177
:1001B40040FBB30C4FB740F92EBAECC140FBB31867
:1001C4004FB740F93EBAE6C1E92FF4EBF491E82FBA
:1001D400F7FFB190F7FDB5900196DCC14695551F28
:1001E400441F4F7DE7C1689406C246956A0D7B1D86
:1001F400441F2EBACFC1EB2DF4EBF491EA2DF7FF97
:100204005191F7FD5591C6C1A318B208C3C140FB73
:10021400A30C4FB740F92EBABDC140FBA3184FB78A
:1002240040F93EBAB7C1E92FF4EBF491E82FF7FF98
:10023400A190F7FDA5900196ADC146955795441F31
:100244004F7DB8C141FBF5C1E92FF4EBF491E82FE0
:10025400F7FF6191F7FD6591F7FF7191F7FD7591D6
:10026400029698C1E92FF4EBF491E82FF7FFA191DE
:10027400F7FDA591F7FFB191F7FDB5910296EB2F2C
:10028400F4EBF491EA2FF7FF6193F7FF719382C1C6
:10029400630D721D7FC140FB730D4FB740F92EBA39
:1002A40079C140FB73194FB740F93EBA73C1E92FC6
:1002B400F4EBF491E82FF7FF7191F7FD7591019636
:1002C40069C1052F0F70F0990CC036E00A3045FF64
:1002D40008F0530F30E6503A40FF10F0530F4160DE
:1002E40004C045FD565040FD5056E52F40FBF5EB4C
:1002F400449140F94FC141FB7EC14695660F771F7B
:10030400441F2EBA47C1E92FF4EBF491E82FF7FF0D
:10031400A191F7FDA591F7FFB191F7FDB591029673
:10032400EB2FF4EBF491EA2FF7FF6191F7FD659160
:10033400F7FF7191F7FD75912DC1631972092AC1F7
:1003440040FB630D4FB740F92EBA24C140FB63193B
:100354004FB740F93EBA1EC1E92FF4EBF491E82FF0
:10036400F7FF6191F7FD6591019614C150954062C4
:100374003EBA10C140FB5DC1E92FF4EBF491E82FC4
:10038400F7FF4190F7FD4590F7FF5190F7FD559029
:10039400029600C1E92FF4EBF491E82FF7FFA19145
:1003A400F7FDA591F7FFB191F7FDB59102965ABDFE
:1003B400EB2FF4EBF491EA2FF7FF5193F7FD0E9432
:1003C4005420E8C0430C521CE5C0E72FF4EBF49131
:1003D400E62FF7FF0191F7FD059140FB030D4FB7A1
:1003E40040F92EBAD6C0E72FF4EBF491E62FF7FFCD
:1003F4000191F7FD059140FB03194FB740F93EBA4F
:10040400C8C0E92FF4EBF491E82FF7FF0191F7FD51
:1004140005910196BEC04F7D2EBA4160BBC040FB22
:10042400EAC04695640D751D441F2EBAB3C0E92F6A
:10043400F4EBF491E82FF7FFA191F7FDA591F7FFF5
:10044400B191F7FDB5910296EB2FF4EBF491EA2FFD
:10045400F7FF5191F7FD55919DC0431852089AC07A
:1004640040FB530D4FB740F92EBA94C040FB5319CB
:100474004FB740F93EBA8EC0E92FF4EBF491E82F60
:10048400F7FF5191F7FD5591019684C040FB45F962
:10049400432590C07FC0982C7DC09B2C7BC09A2C98
:1004A40079C0972E77C0962E75C01CD6902E72C038
:1004B400952E70C0892C6EC06DC08B2C6BC08A2C9D
:1004C40069C0872E67C0862E65C00CD6802E62C098
:1004D400852E60C0B92C5EC0B82C5CC05BC0BA2C41
:1004E40059C0B72E57C0B62E55C0FCD5B02E52C039
:1004F400B52E50C0A92C4EC0A82C4CC0AB2C4AC061
:1005040049C0A72E47C0A62E45C0ECD5A02E42C098
:10051400A52E40C0792D3EC0782D3CC07B2D3AC01D
:100524007A2D38C037C0762F35C0DCD5702F32C055
:10053400752F30C0692D2EC0682D2CC06B2D2AC09C
:100544006A2D28C0672F26C025C0CCD5602F22C0B5
:10055400652F20C0092D1DC0082D1BC00B2D19C0EF
:100564000A2D17C0072F15C0062F13C013C0052F5F
:1005740010C0592D0FC0582D0DC05B2D0BC05A2D26
:1005840009C0572F07C0562F05C0ACD5502F02C045
:1005940001C09DC5EE27E92FF4EBF491E82FF7FF96
:1005A4000190F7FD059097FD06FCE02D0196F5E01E
:1005B40009944FB72EBAEE27E92FF4EBF491E82F04
:1005C400F7FF0190F7FD059097FD06FCE02D0196DD
:1005D400F5E009944FB73EBAEE27E92FF4EBF49116
:1005E400E82FF7FF0190F7FD059097FD06FCE02D3D
:1005F4000196F5E00994E92FF4EBF491E82FF7FF65
:10060400E191F7FDE59101962EF4E05880589209A6
:100614008E0F921DEE27E92FF4EBF491E82FF7FFEC
:100624000190F7FD059097FD06FCE02D0196F5E09D
:100634000994E92FF4EBF491E82FF7FFE191F7FD2A
:10064400E59101962EF0E058805892098E0F921D84
:10065400EE27E92FF4EBF491E82FF7FF0190F7FD73
:10066400059097FD06FCE02D0196F5E00994E92F2D
:10067400F4EBF491E82FF7FFA191F7FDA591F7FFB3
:10068400B191F7FDB59102960EF4CD01EE27E92F55
:10069400F4EBF491E82FF7FF0190F7FD059097FD37
:1006A40006FCE02D0196F5E00994E92FF4EBF491B2
:1006B400E82FF7FFA191F7FDA591F7FFB191F7FDA1
:1006C400B59102960EF0CD01EE27E92FF4EBF491EB
:1006D400E82FF7FF0190F7FD059097FD06FCE02D4C
:1006E4000196F5E00994E92FF4EBF491E82FF7FF74
:1006F4000190F7FD0590F7FF1190F7FD1590029614
:1007040046F4E20122972E01DF73DE5F8993999309
:10071400C001EE27E92FF4EBF491E82FF7FF0190E5
:10072400F7FD059097FD06FCE02D0196F5E0099490
:10073400E92FF4EBF491E82FF7FF0190F7FD059012
:10074400F7FF1190F7FD1590029646F0E20122970B
:100754002E01DF73DE5F89939993C001EE27E92FA1
:10076400F4EBF491E82FF7FF0190F7FD059097FD66
:1007740006FCE02D0196F5E00994002E122CE2010E
:1007840022972E01DF73DE5F89939993C001EE27D0
:10079400E92FF4EBF491E82FF7FF0190F7FD0590B2
:1007A40097FD06FCE02D0196F5E009943EF4E20184
:1007B40022962E01DF73DE5F9A918A91EE27E92F4C
:1007C400F4EBF491E82FF7FF0190F7FD059097FD06
:1007D40006FCE02D0196F5E009943EF0E201229634
:1007E4002E01DF73DE5F9A918A91EE27E92FF4EBF5
:1007F400F491E82FF7FF0190F7FD059097FD06FCB3
:10080400E02D0196F5E00994E52FF5EB44912EBA1D
:10081400EE27E92FF4EBF491E82FF7FF0190F7FDB1
:10082400059097FD06FCE02D0196F5E00994E52F6F
:10083400F5EB44912EBA4F7DEE27E92FF4EBF491BA
:10084400E82FF7FF0190F7FD059097FD06FCE02DDA
:060854000196F5E0099495
:100A0000CBCD45CB52CB5CCB5ECB63CB68CB71CB34
:100A100077CB80CB85CB8DCB8FCB94CB99CBA2CB17
:100A2000A8CBACCBB9CBC3CBC5CBCACBCFCBD8CB68
:100A3000DCCBDDCBE2CBEACBECCBF1CBF6CBFFCB07
:100A400003CC04CC11CC26CC28CC2DCC32CC3BCC46
:100A500054CC55CC5ACC73CC75CC7ACC7FCC88CCCA
:100A60008BCC8CCC99CCB0CCB2CCBFCCCCCCD5CCB4
:100A7000D8CCD9CCDECCF3CCF5CCFACCFFCC08CD9D
:100A80000BCD0BCD0CCD0DCD0ECD0FCD10CD12CD90
:100A900013CD14CD14CD15CD16CD17CD18CD1ACD3F
:100AA0001BCD1CCD1DCD1DCD1ECD1FCD20CD22CDEE
:100AB00023CD24CD25CD26CD26CD27CD28CD2ACD9D
:100AC0002BCD2CCD2DCD2ECD2FCD2FCD30CD32CD4C
:100AD00033CD34CD35CD36CD37CD38CD38CD3ACDFB
:100AE0003BCD3CCD3DCD3ECD3FCD40CD41CD41CDAB
:100AF00042CD43CD44CD45CD46CD47CD48CD4ACD61
:100B00007FC080C081C082C083C084C085C08EC0C9
:100B10008FC091C093C095C097C099C09BC0A5C01D
:100B2000A7C0A8C0A9C0AAC0ABC0ACC0ADC0B6C069
:100B3000B7C0BAC0BDC0C0C0C3C0C6C0C9C0D4C0A1
:100B4000D7C0D8C0D9C0DAC0DBC0DCC0DDC0E6C0C9
:100B5000E7C0E8C0E9C0EAC0EBC0ECC0EDC0F6C039
:100B6000F7C0F8C0F9C0FAC0FBC0FCC0FDC006C1A8
:100B700007C108C109C10AC10BC10CC10DC116C111
:100B800017C118C11FC120C12EC12FC136C140C11C
:100B900041C142C143C144C145C146C147C152C11F
:100BA00053C154C15BC15CC169C16AC171C17BC120
:100BB0007CC17DC198C199C1A6C1A7C1A8C1B4C15A
:100BC000B5C1B6C1BDC1BEC1C6C1C7C1CEC1D8C104
:100BD000D9C1DAC1DCC1DDC1E0C1E1C1E2C1ECC112
:100BE000EDC1EEC1F5C1F6C1F6C1F7C1FEC108C243
:100BF00009C20AC20CC20DC20DC20EC20FC219C276
:100C0000590DD9CC580DD7CC5B0DD5CC5A0DD3CCC2
:100C1000570FD1CC560FCFCCE72FF4EBF491E62F42
:100C2000F7FF0191F7FD0591500FC5CC550FC3CCCF
:100C30004695591DC0CC4695581DBDCC46955B1DAB
:100C4000BACC46955A1DB7CC4695571FB4CC46959D
:100C5000561FB1CCE72FF4EBF491E62FF7FF01918B
:100C6000F7FD05914695501FA6CC4695551FA3CC80
:100C70005919B2CC5819B0CC5B19AECC5A19ACCCBE
:100C8000571BAACC561BA8CCE72FF4EBF491E62F08
:100C9000F7FF0191F7FD0591501B9ECC551B9CCC95
:100CA00046951894590998CC46951894580994CCAF
:100CB000469518945B0990CC469518945A098CCCAB
:100CC00046951894570B88CC46951894560B84CCAF
:100CD000E72FF4EBF491E62FF7FF0191F7FD059173
:100CE00046951894500B78CC46951894550B74CCB7
:100CF00059218CCD58218ACD5B2188CD5A2186CDB2
:100D0000572384CD562382CDE72FF4EBF491E62FC1
:100D1000F7FF0191F7FD0591502378CD552376CD4E
:100D2000592587CD582585CD5B2583CD5A2581CD85
:100D300057277FCD56277DCDE72FF4EBF491E62F93
:100D4000F7FF0191F7FD0591502773CD552771CD20
:100D500059296FCD58296DCD5B296BCD5A2969CDA5
:100D6000572B67CD562B65CDE72FF4EBF491E62F8B
:100D7000F7FF0191F7FD0591502B5BCD552B59CD18
:100D800059152ACC581528CC5B1526CC5A1524CCDD
:100D9000571722CC561720CCE72FF4EBF491E62F0F
:100DA000F7FF0191F7FD0591501716CC551714CC9C
:100DB00041FB15CDE20122962E01DF73DE5F9A9092
:100DC0008A90EACB41FB73CCE92FF4EBF491E82F46
:100DD000F7FF0191F7FD0591F7FF1191F7FD1591CF
:100DE0000296C801D9CB41FBA5CCE20122972E0186
:100DF000DF73DE5F89929992CFCBE92FF4EBF49108
:100E0000E82FF7FF0191F7FD05910196500FD3CB25
:100E100000E0B5CC41FBCCCC6894CACC41FB29CCDA
:100E20000C947A0E41FB61CC68945FCCE92FF4EB13
:100E3000F491E82FF7FF0191F7FD05910196469592
:100E4000501FB9CB08E09BCC40FBC9CCE2012296F5
:100E50002E01DF73DE5FBA90AA909ECB40FB27CCB9
:100E6000E92FF4EBF491E82FF7FF2191F7FD25919D
:100E70000196352F052F0E9433208ECB40FB5ACC94
:100E8000E20122972E01DF73DE5FA992B99284CB33
:100E9000E92FF4EBF491E82FF7FF0191F7FD0591AD
:100EA0000196501B99CB00E16ACC40FB81CC040138
:100EB0008090180190901901109219010092180168
:100EC0000501A0901A01B0901B0110921B01009225
:100ED0001A010B0160911C0170911D0110921D01FE
:100EE00000921C0159CB40FBC4CBE92FF4EBF491E9
:100EF000E82FF7FF2191F7FD25910196352F0E94EC
:100F00000320502F49CB40FBF0CB0C941F12E92F4C
:100F1000F4EBF491E82FF7FF0191F7FD05910196AD
:100F200046951894500B58CB08E129CC43FB57CC7D
:100F3000E20122962E01DF73DE5F7A916A912CCB5B
:100F400043FBB5CBE201DF73DE5F099019907A9322
:100F50006A93B00121CB43FBEDCBE20122972E0136
:100F6000DF73DE5F6993799317CBE92FF4EBF4918C
:100F7000E82FF7FF0191F7FD05910196502346CC2C
:100F800000E2FDCB43FB14CC862F972F05CB43FB10
:100F900070CB05015B01B001FFCA43FBA6CB0C94EB
:100FA000201CE92FF4EBF491E82FF7FF0191F7FDF6
:100FB0000591019650273DCC08E2E1CB42FB0FCCD6
:100FC000E20122962E01DF73DE5F5A914A91E4CA54
:100FD00042FB6DCBE1CA42FBADCBE20122972E0171
:100FE000DF73DE5F49935993D7CAE92FF4EBF4918D
:100FF000E82FF7FF0191F7FD05910196502B19CCD1
:1010000000E3BDCB42FBD4CB462E572EC5CA42FBD4
:1010100030CBC2CA42FB69CB0C94D918E92FF4EB50
:10102000F491E82FF7FF0191F7FD05910196501714
:10103000D3CA08E3A4CB02E0401A5208D0E00991D9
:101040001881E52DF4EBF491E42DF7FF0193F7FF00
:101050001193A2CAD0E0E52DF4EBF491E42DF7FF53
:101060000191F7FD0591F7FF1191F7FD1591099396
:10107000188302E0400E521C8FCAD0E0088019800D
:10108000D201EB2FF4EBF491EA2FF7FF0191F7FD7A
:1010900005910ABCEB2FF4EBF491EA2FF7FF0192D4
:1010A000F7FD0E94542011960883EB2FF4EBF49186
:1010B000EA2FF7FF0191F7FD05911ABCEB2FF4EB36
:1010C000F491EA2FF7FF1192F7FD0E945420098353
:1010D00063CA0ABDE72FF4EBF491E62FF7FF019303
:1010E000F7FD0E94542058CAE72FF4EBF491E62F45
:1010F000F7FF0191F7FD05910895FFC003C107C1F6
:101100000BC10FC113C117C11CC120C124C128C10B
:101110002CC130C134C138C13DC141C145C149C1F3
:101120004DC151C155C159C15EC162C167C16CC1D8
:1011300071C176C17BC180C186C18BC18EC191C195
:1011400094C197C19AC19DC1A1C1A4C1A9C1AEC199
:10115000B3C1B8C1BDC1C2C1C8C1CDC1D1C1D5C162
:10116000D9C1DDC1E1C1E5C1EAC1EEC1F1C1F4C13E
:10117000F7C1FAC1FDC100C204C207C20EC215C246
:101180001CC223C22AC231C239C240C247C24EC2A7
:1011900055C25CC263C26AC272C279C280C287C2CF
:1011A0008EC295C29CC2A3C2ABC2B2C2B9C2C0C2F7
:1011B000C7C2CEC2D5C2DCC2E4C2EBC2F2C2F9C21F
:1011C00000C307C30EC315C31DC324C32BC332C33F
:1011D00039C340C347C34EC356C35DC364C36BC367
:1011E00072C379C380C387C38FC396C39DC3A4C38F
:1011F000ABC3B2C3B9C3C0C3C8C3CFC3D1C3D3C3C6
:10120000D5C3D7C3D9C3DBC3DEC3E0C3E2C3E4C3E2
:10121000E6C3E8C3EAC3ECC3EFC3F1C3F3C3F5C34A
:10122000F7C3F9C3FBC3FDC300C402C404C406C4AE
:1012300008C40AC40CC40EC411C413C415C417C412
:1012400019C41BC41DC41FC422C424C426C428C47A
:101250002AC42CC42EC430C433C435C437C439C4E2
:101260003BC43DC43FC441C444C446C448C44AC44A
:101270004CC44EC450C452C455C457C459C45BC4B2
:101280005DC45FC461C463C466C468C46AC46CC41A
:101290006EC470C472C474C477C479C47BC47DC482
:1012A0007FC481C483C485C488C48AC48CC48EC4EA
:1012B00090C492C494C496C499C49BC49DC49FC452
:1012C000A1C4A3C4A5C4A7C4AAC4ACC4AEC4B0C4BA
:1012D000B2C4B4C4B6C4B8C4BBC4BDC4BFC4C1C422
:1012E000C3C4C5C4C7C4C9C4CCC4CEC4D0C4D2C48A
:1012F000D4C4D6C4D8C4DAC4DDC497FA990C90F823
:10130000E92DE5C487FA880C80F8E82DE0C4B7FA27
:10131000BB0CB0F8EB2DDBC4A7FAAA0CA0F8EA2DA1
:10132000D6C477FB770F70F9E72FD1C467FB660F40
:1013300060F9E62FCCC4ECD407FB000F00F9E02FD6
:10134000BCC457FB550F50F9E52FC1C490FA9694D1
:1013500097F8E92DBCC480FA869487F8E82DB7C4C5
:10136000B0FAB694B7F8EB2DB2C4A0FAA694A7F8D9
:10137000EA2DADC470FB769577F9E72FA8C460FB22
:10138000669567F9E62FA3C4C3D400FB069507F959
:10139000E02F93C450FB569557F9E52F98C4469516
:1013A00097FA991CE92D93C4469587FA881CE82D75
:1013B0008EC44695B7FABB1CEB2D89C44695A7FA97
:1013C000AA1CEA2D84C4469577FB771FE72F7FC4BC
:1013D000469567FB661FE62F7AC49AD4469507FBAD
:1013E000001FE02F6AC4469557FB551FE52F6FC4B9
:1013F000242F269590FA9794E92D69C4242F2695D9
:1014000080FA8794E82D63C4242F2695B0FAB79408
:10141000EB2D5DC4242F2695A0FAA794EA2D57C47E
:10142000242F269570FB7795E72F51C4242F2695FE
:1014300060FB6795E62F4BC46BD4242F269500FBE9
:101440000795E02F3AC4242F269550FB5795E52F9A
:101450003EC497FA990CE92D3AC487FA880CE82D16
:1014600036C4B7FABB0CEB2D32C4A7FAAA0CEA2D8E
:101470002EC477FB770FE72F2AC467FB660FE62F92
:1014800026C446D407FB000FE02F17C457FB550FA7
:10149000E52F1DC4292D220F90FA9794E92D17C42A
:1014A000282D220F80FA8794E82D11C42B2D220FAE
:1014B000B0FAB794EB2D0BC42A2D220FA0FAA794F3
:1014C000EA2D05C4272F220F70FB7795E72FFFC366
:1014D000262F220F60FB6795E62FF9C319D4202F22
:1014E000220F00FB0795E02FE8C3252F220F50FBAA
:1014F0005795E52FECC397FA990C9328E92DE7C38C
:1015000087FA880C8328E82DE2C3B7FABB0CB3280E
:10151000EB2DDDC3A7FAAA0CA328EA2DD8C377FBCD
:10152000770F7329E72FD3C367FB660F6329E62F75
:10153000CEC3EED307FB000F0329E02FBEC357FB3A
:10154000550F5329E52FC3C390FA9694E92DBFC3D5
:1015500080FA8694E82DBBC3B0FAB694EB2DB7C3DE
:10156000A0FAA694EA2DB3C370FB7695E72FAFC31C
:1015700060FB6695E62FABC3CBD300FB0695E02F4F
:101580009CC350FB5695E52FA2C3292D209520FB27
:1015900041F94B7F2EBA40629EC3282D209520FB37
:1015A00041F94B7F2EBA406296C32B2D209520FB2C
:1015B00041F94B7F2EBA40628EC32A2D209520FB25
:1015C00041F94B7F2EBA406286C3272F209520FB1E
:1015D00041F94B7F2EBA40627EC3262F209520FB17
:1015E00041F94B7F2EBA406276C392D3202F2095CB
:1015F00020FB41F94B7F2EBA40626DC3252F209509
:1016000020FB41F94B7F2EBA406265C3292D2095FE
:1016100021FB41F94B7F2EBA40625DC3282D2095F6
:1016200021FB41F94B7F2EBA406255C32B2D2095EB
:1016300021FB41F94B7F2EBA40624DC32A2D2095E4
:1016400021FB41F94B7F2EBA406245C3272F2095DD
:1016500021FB41F94B7F2EBA40623DC3262F2095D6
:1016600021FB41F94B7F2EBA406235C351D3202F65
:10167000209521FB41F94B7F2EBA40622CC3252FC8
:10168000209521FB41F94B7F2EBA406224C3292DBE
:10169000209522FB41F94B7F2EBA40621CC3282DB6
:1016A000209522FB41F94B7F2EBA406214C32B2DAB
:1016B000209522FB41F94B7F2EBA40620CC32A2DA4
:1016C000209522FB41F94B7F2EBA406204C3272F9D
:1016D000209522FB41F94B7F2EBA4062FCC2262F97
:1016E000209522FB41F94B7F2EBA4062F4C210D301
:1016F000202F209522FB41F94B7F2EBA4062EBC28E
:10170000252F209522FB41F94B7F2EBA4062E3C280
:10171000292D209523FB41F94B7F2EBA4062DBC275
:10172000282D209523FB41F94B7F2EBA4062D3C26E
:101730002B2D209523FB41F94B7F2EBA4062CBC263
:101740002A2D209523FB41F94B7F2EBA4062C3C25C
:10175000272F209523FB41F94B7F2EBA4062BBC255
:10176000262F209523FB41F94B7F2EBA4062B3C24E
:10177000CFD2202F209523FB41F94B7F2EBA406218
:10178000AAC2252F209523FB41F94B7F2EBA406238
:10179000A2C2292D209524FB41F94B7F2EBA40622D
:1017A0009AC2282D209524FB41F94B7F2EBA406226
:1017B00092C22B2D209524FB41F94B7F2EBA40621B
:1017C0008AC22A2D209524FB41F94B7F2EBA406214
:1017D00082C2272F209524FB41F94B7F2EBA40620D
:1017E0007AC2262F209524FB41F94B7F2EBA406206
:1017F00072C28ED2202F209524FB41F94B7F2EBA46
:10180000406269C2252F209524FB41F94B7F2EBAF7
:10181000406261C2292D209525FB41F94B7F2EBAEC
:10182000406259C2282D209525FB41F94B7F2EBAE5
:10183000406251C22B2D209525FB41F94B7F2EBADA
:10184000406249C22A2D209525FB41F94B7F2EBAD3
:10185000406241C2272F209525FB41F94B7F2EBACC
:10186000406239C2262F209525FB41F94B7F2EBAC5
:10187000406231C24DD2202F209525FB41F94B7F8C
:101880002EBA406228C2252F209525FB41F94B7FB7
:101890002EBA406220C2292D209526FB41F94B7FAC
:1018A0002EBA406218C2282D209526FB41F94B7FA5
:1018B0002EBA406210C22B2D209526FB41F94B7F9A
:1018C0002EBA406208C22A2D209526FB41F94B7F93
:1018D0002EBA406200C2272F209526FB41F94B7F8C
:1018E0002EBA4062F8C1262F209526FB41F94B7F86
:1018F0002EBA4062F0C10CD2202F209526FB41F970
:101900004B7F2EBA4062E7C1252F209526FB41F977
:101910004B7F2EBA4062DFC1292D209527FB41F96C
:101920004B7F2EBA4062D7C1282D209527FB41F965
:101930004B7F2EBA4062CFC12B2D209527FB41F95A
:101940004B7F2EBA4062C7C12A2D209527FB41F953
:101950004B7F2EBA4062BFC1272F209527FB41F94C
:101960004B7F2EBA4062B7C1262F209527FB41F945
:101970004B7F2EBA4062AFC1CBD1202F209527FBE1
:1019800041F94B7F2EBA4062A6C1252F209527FB37
:1019900041F94B7F2EBA40629EC12EEF92229BC12D
:1019A0002EEF822298C12EEFB22295C12EEFA222F5
:1019B00092C12EEF72238FC12EEF62238CC1A8D16A
:1019C0002EEF0223AEC12EEF522385C12DEF9222BE
:1019D00082C12DEF82227FC12DEFB2227CC12DEF7B
:1019E000A22279C12DEF722376C12DEF622373C13C
:1019F0008FD12DEF022395C12DEF52236CC12BEF18
:101A0000922269C12BEF822266C12BEFB22263C101
:101A10002BEFA22260C12BEF72235DC12BEF62235B
:101A20005AC176D12BEF02237CC12BEF522353C135
:101A300027EF922250C127EF82224DC127EFB22219
:101A40004AC127EFA22247C127EF722344C127EFE3
:101A5000622341C15DD127EF022363C127EF5223E7
:101A60003AC12FEE922237C12FEE822234C12FEEDF
:101A7000B22231C12FEEA2222EC12FEE72232BC132
:101A80002FEE622328C144D12FEE02234AC12FEE4C
:101A9000522321C12FED92221EC12FED82221BC1A4
:101AA0002FEDB22218C12FEDA22215C12FED722306
:101AB00012C12FED62230FC12BD12FED022331C1B3
:101AC0002FED522308C12FEB922205C12FEB82226A
:101AD00002C12FEBB222FFC02FEBA222FCC02FEBE2
:101AE0007223F9C02FEB6223F6C012D12FEB022331
:101AF00018C12FEB5223EFC02FE79222ECC02FE743
:101B00008222E9C02FE7B222E6C02FE7A222E3C07B
:101B10002FE77223E0C02FE76223DDC0F9D02FE763
:101B20000223FFC02FE75223D6C021E0922AD3C060
:101B300021E0822AD0C021E0B22ACDC021E0A22A31
:101B4000CAC021E0722BC7C021E0622BC4C0E0D024
:101B500021E0022BE6C021E0522BBDC022E0922AF8
:101B6000BAC022E0822AB7C022E0B22AB4C022E082
:101B7000A22AB1C022E0722BAEC022E0622BABC021
:101B8000C7D022E0022BCDC022E0522BA4C024E01B
:101B9000922AA1C024E0822A9EC024E0B22A9BC0DF
:101BA00024E0A22A98C024E0722B95C024E0622B86
:101BB00092C0AED024E0022BB4C024E0522B8BC0E4
:101BC00028E0922A88C028E0822A85C028E0B22A2C
:101BD00082C028E0A22A7FC028E0722B7CC028E0C7
:101BE000622B79C095D028E0022B9BC028E0522BB5
:101BF00072C020E1922A6FC020E1822A6CC020E1ED
:101C0000B22A69C020E1A22A66C020E1722B63C01B
:101C100020E1622B60C07CD020E1022B82C020E159
:101C2000522B59C020E2922A56C020E2822A53C089
:101C300020E2B22A50C020E2A22A4DC020E2722B3C
:101C40004AC020E2622B47C063D020E2022B69C069
:101C500020E2522B40C020E4922A3DC020E4822A98
:101C60003AC020E4B22A37C020E4A22A34C020E4DB
:101C7000722B31C020E4622B2EC04AD020E4022B0C
:101C800050C020E4522B27C020E8922A24C020E82C
:101C9000822A21C020E8B22A1EC020E8A22A1BC046
:101CA00020E8722B18C020E8622B15C031D020E844
:101CB000022B37C020E8522B0EC00ABDE72FF4EBF1
:101CC000F491E62FF7FF0193F7FD0E945420F6EB05
:101CD00044912EBA40F9EE27E92FF4EBF491E82F66
:101CE000F7FF0190F7FD059097FD06FCE02D0196AA
:101CF000F5E00994E92FF4EBF491E82FF7FF019157
:101D0000F7FD05910196EDE7F8E0E00FF21D09946B
:101D1000E72FF4EBF491E62FF7FF0191F7FD059122
:101D200008950ABDE72FF4EBF491E62FF7FF019336
:101D3000F7FD0E945420CFCF0C94CC020C944700A6
:101D40000C9455000C9460000C9463000C94690092
:101D50000C946F000C9479000C9480000C949C10EF
:101D60000C9490000C9499000C949C000C94A2008C
:101D70000C94A8000C94B2000C94B9000C94BE0012
:101D80000C94CC000C94D7000C94DA000C94E00076
:101D90000C94E6000C94F0000C94F5000C94A11047
:101DA0000C94FD000C9406010C9409010C940F0195
:101DB0000C9415010C941F010C9424010C94A61092
:101DC0000C94B4100C94CA100C94CD100C94D31035
:101DD0000C94D9100C9463010C947D010C94E310C5
:101DE0000C94E8100C9402110C9405110C940B1136
:101DF0000C9411110C94B8010C94BC010C94BE010C
:101E00000C94CC010C94E4010C941B110C94221141
:101E10000C9429110C940D020C9411020C9437119E
:101E20000C9419020C942F020C9432020C94380278
:101E30000C943E020C9448020C944C020C944D02FB
:101E40000C944F020C9451020C943C110C943E11D2
:101E50000C9440110C945A020C945C020C945E0297
:101E60000C945F020C9461020C9443110C94451184
:101E70000C9447110C946A020C946C020C946E0240
:101E80000C9470020C9471020C944A110C944C1135
:101E90000C944E110C947A020C947C020C947E02E9
:101EA0000C9480020C9482020C9451110C945311E6
:101EB0000C9455110C948A020C9458110C945A11DC
:101EC0000C945C110C945E110C9460110C946111D3
:101ED0000C9463110C9466110C9468110C946A11A3
:101EE0000C946C110C946E110C9470110C94721172
:101EF0000C9473110C9476110C9478110C947A1143
:101F00000C947C110C947E110C9480110C94821111
:101F10000C94B8020C9484110C94BB020C94BD0276
:101F20000C94BF020C94C1020C9486110C9488117D
:101F30000C948A110C94CA020C9400060C940206AC
:101F40000C9404060C9406060C948D110C949011BC
:101F50000C9493110C9416060C9418060C941B0602
:101F60000C941E060C9421060C9497110C949B1152
:101F70000C949F110C9435060C9438060C943A0678
:101F80000C943C060C943E060C94A4110C94A711DE
:101F90000C94AA110C944E060C9450060C94540602
:101FA0000C9458060C945C060C94AE110C94B3116E
:101FB0000C94B8110C9474060C9478060C947A0660
:101FC0000C947C060C947E060C94BE110C94C111EA
:101FD0000C94C4110C948E060C9490060C949206EA
:101FE0000C9494060C9496060C94C8110C94CB1186
:101FF0000C94CE110C94A6060C94A8060C94AA0678
:102000000C94AC060C94AE060C94D2110C94D51121
:102010000C94D8110C94BE060C94C0060C94C20605
:102020000C94C4060C94C6060C94DC110C94DF11BD
:102030000C94E2110C94D6060C94D8060C94DA0693
:102040000C94E2060C94E4060C94F3060C94F5064A
:102050000C94FD060C9408070C940A070C940C07CA
:102060000C940E070C94E6110C9412070C941407B0
:102070000C9416070C9422070C9424070C94260742
:102080000C942E070C9430070C943E070C944007D8
:102090000C9448070C9453070C9455070C9457075D
:1020A0000C9473070C9475070C9483070C94E81137
:1020B0000C9487070C9494070C9496070C94EA11DF
:1020C0000C94A0070C94F2110C94AB070C94FB1128
:1020D0000C94B5070C94C0070C94C2070C9403121F
:1020E0000C94C7070C9405120C94CD070C9409129C
:1020F0000C94D1070C94DC070C94DE070C94E007D9
:102100000C94E8070C94EA070C94EB070C94ED0789
:102110000C94F5070C9400080C9402080C940A1215
:102120000C9407080C9409080C940A080C940D12DE
:102130000C940E080C9419084695C80CD91C441F21
:102140006EC14695CA0CDB1C441F69C1E92FF4EB34
:10215000F491E82FF7FFC190F7FDC590F7FFD190FC
:10216000F7FDD59002965CC1E92FF4EBF491E82FCE
:10217000F7FFA191F7FDA591F7FFB191F7FDB5919B
:102180000296EB2FF4EBF491EA2FF7FFC192F7FFE1
:10219000D19246C1C30CD21C43C140FBD30C4FB7F4
:1021A00040F92EBA3DC140FBD3184FB740F93EBAB3
:1021B00037C1E92FF4EBF491E82FF7FFD190F7FD49
:1021C000D59001962DC14695CC0CDD1C441F27C12E
:1021D000E92FF4EBF491E82FF7FFA191F7FDA5911A
:1021E000F7FFB191F7FDB5910296EB2FF4EBF49167
:1021F000EA2FF7FFC190F7FDC590F7FFD190F7FDEB
:10220000D5900EC1C318D2080BC140FBC30C4FB709
:1022100040F92EBA05C140FBC3184FB740F93EBA8A
:10222000FFC0E92FF4EBF491E82FF7FFC190F7FD21
:10223000C5900196F5C013D140FB030D4FB740F98F
:102240002EBA30C10CD140FB03194FB740F93EBA4A
:1022500029C1E92FF4EBF491E82FF7FF1191F7FD75
:102260001591F7FF0191F7FD059102961BC1469567
:10227000C40CD51C441FD3C09D2CD2C09C2CD0C0F4
:10228000EED0902ECDC08D2CCBC08C2CC9C0E7D009
:10229000802EC6C0BD2CC4C0BC2CC2C0E0D0B02EA5
:1022A000BFC0AD2CBDC0AC2CBBC0D9D0A02EB8C017
:1022B000D92CB6C0D82CB4C0DB2CB2C0DA2CB0C03C
:1022C000AFC0DC2CADC0CBD0D02EAAC0D52EA8C0BC
:1022D000C92CA6C0C82CA4C0CB2CA2C0CA2CA0C09C
:1022E000CD2C9EC09DC0BBD0C02E9AC0C52E98C01C
:1022F000092DCFC0082DCDC00B2DCBC00A2DC9C0D4
:10230000072FC7C0062FC5C0052FC3C05D2D88C0CD
:102310005C2D86C0A4D0502F83C05D0D0C94DB02D1
:102320005C0D0C94DB029BD0500F0C94DB024695A5
:102330005D1D0C94DB0246955C1D0C94DB028FD076
:102340004695501F0C94DB025D190C94EC025C194D
:102350000C94EC0284D0501B0C94EC02469518941B
:102360005D090C94EC02469518945C090C94EC02FF
:1023700076D046951894500B0C94EC025D210C9489
:1023800006045C210C9406046AD050230C940604C5
:102390005D250C9419045C250C94190460D0502719
:1023A0000C9419045D290C9419045C290C941904EB
:1023B00056D0502B0C9419045D150C94EC025C154E
:1023C0000C94EC024CD050170C94EC020C94FC1BB7
:1023D0000C941012E20122962E01DF73DE5FDA9078
:1023E000CA901EC0E201DF73DE5F09901990DA9295
:1023F000CA92600115C0E20122972E01DF73DE5FF1
:10240000C992D9920DC0C6010BC0050156016001E9
:1024100007C006C04C2C5D2C03C00C9410122EBAC1
:10242000EE27E92FF4EBF491E82FF7FF0190F7FD89
:10243000059097FD06FCE02D0196F5E00994E92F43
:10244000F4EBF491E82FF7FF0191F7FD0591019668
:10245000ECE9FEE0000FF21DE00FF21D0994E92FF8
:10246000F4EBF491E82FF7FF1191F7FD1591019628
:102470000601E12FF0E8EF1B0F1A12080E0E121CD6
:10248000E12DF4EBF491E02DF7FF0191F7FD0591BB
:102490000895E92FF4EBF491E82FF7FF1191F7FD80
:1024A000159101960601E12FF0E8EF1B0F1A1208B3
:1024B0000E0E121C0ABDE12DF4EBF491E02DF7FF96
:1024C0000193F7FD0E945420ABCF0C94CC020C94E6
:1024D00047000C9455000C9460000C9463000C941D
:1024E00069000C9465140C9479000C9480000C9491
:1024F0008A000C9490000C9499000C949C000C940D
:10250000A2000C946B140C94B2000C94B9000C94BF
:10251000BE000C94CC000C94D7000C94DA000C9400
:10252000E0000C9471140C94F0000C94F5000C94E1
:10253000F7000C94FD000C9406010C9409010C9416
:102540000F010C9477140C941F010C9424010C942B
:1025500026010C9434010C944A010C944D010C9406
:1025600053010C947E140C9463010C947D010C9423
:102570007F010C9485010C949F010C94A2010C9492
:10258000A8010C9483140C94B8010C94BC010C9415
:10259000BE010C94CC010C94E4010C94E7010C9462
:1025A000F5010C948A140C940D020C9411020C94F5
:1025B00013020C9419020C942F020C9432020C9406
:1025C00038020C9490140C9448020C944C020C9415
:1025D0004D020C944F020C9451020C9453020C9433
:1025E00055020C9495140C945A020C945C020C94B1
:1025F0005E020C945F020C9461020C9463020C94D2
:1026000065020C949E140C946A020C946C020C9457
:102610006E020C9470020C9471020C9473020C9470
:1026200075020C94A7140C947A020C947C020C94FE
:102630007E020C9480020C9482020C9483020C940F
:1026400085020C94B0140C948A020C948C020C94A5
:102650008E020C9490020C9492020C9494020C94AE
:1026600095020C94B9140C949A020C949C020C944C
:102670009E020C94A0020C94A2020C94A4020C944E
:10268000A6020C94C2140C94AA020C94AC020C94F2
:10269000AE020C94B0020C94B2020C94B4020C94EE
:1026A000B6020C94CB140C94B9020C94BB020C949B
:1026B000BD020C94BF020C94C1020C94C3020C9492
:1026C000C5020C94D4140C94CA020C9400060C9409
:1026D00002060C9404060C9406060C9408060C944E
:1026E0000A060C94DD140C9416060C9418060C942F
:1026F0001B060C941E060C9421060C9424060C94C4
:1027000027060C94E1140C9435060C9438060C94AE
:102710003A060C943C060C943E060C9440060C942D
:1027200042060C94E5140C944E060C9450060C943E
:1027300054060C9458060C945C060C9460060C9499
:1027400064060C94E9140C9474060C9478060C94AA
:102750007A060C947C060C947E060C9480060C94ED
:1027600082060C94ED140C948E060C9490060C9436
:1027700092060C9494060C9496060C9498060C946D
:102780009A060C94F1140C94A6060C94A8060C94CA
:10279000AA060C94AC060C94AE060C94B0060C94ED
:1027A000B2060C94F5140C94BE060C94C0060C945E
:1027B000C2060C94C4060C94C6060C94C8060C946D
:1027C000CA060C94F9140C94D6060C94D8060C94F2
:1027D000DA060C94E2060C94E4060C94F3060C94CE
:1027E000F5060C94FD140C9408070C940A070C943D
:1027F0000C070C940E070C9410070C9412070C9401
:1028000014070C9401150C9422070C9424070C94C3
:1028100026070C942E070C9430070C943E070C945A
:1028200040070C9405150C9453070C9455070C9411
:1028300057070C9473070C9475070C9483070C943A
:1028400085070C9409150C9494070C9496070C9426
:1028500098070C94A0070C94A2070C94AB070C9457
:10286000AD070C940D150C94C0070C94C2070C9482
:10287000C4070C94C7070C94C9070C94CD070C949B
:10288000CF070C9411150C94DC070C94DE070C9404
:10289000E0070C94E8070C94EA070C94EB070C94FF
:1028A000ED070C9415150C9400080C9402080C9478
:1028B00004080C9407080C9409080C940A080C945A
:1028C0000C080C9419150C941908D2DD07FB000FA5
:1028D00000F9E02FB2C0CCDD00FB069507F9E02F30
:1028E000ACC0C6DD469507FB001FE02FA6C0C0DDCB
:1028F000242F269500FB0795E02F9FC0B9DD07FB2D
:10290000000FE02F9AC0B4DD202F220F00FB0795A7
:10291000E02F93C0ADDD07FB000F0329E02F8DC032
:10292000A7DD00FB0695E02F88C0A2DD202F2095B3
:1029300020FB41F94B7F2EBA406283C099DD202FE6
:10294000209521FB41F94B7F2EBA40627AC090DD81
:10295000202F209522FB41F94B7F2EBA406271C097
:1029600087DD202F209523FB41F94B7F2EBA406253
:1029700068C07EDD202F209524FB41F94B7F2EBAC5
:1029800040625FC075DD202F209525FB41F94B7F0C
:102990002EBA406256C06CDD202F209526FB41F9EF
:1029A0004B7F2EBA40624DC063DD202F209527FB60
:1029B00041F94B7F2EBA406244C05ADD2EEF02230C
:1029C00071CD56DD2DEF02236DCD52DD2BEF0223AD
:1029D00069CD4EDD27EF022365CD4ADD2FEE0223C0
:1029E00061CD46DD2FED02235DCD42DD2FEB0223CD
:1029F00059CD3EDD2FE7022355CD3ADD21E0022BF4
:102A000051CD36DD22E0022B4DCD32DD24E0022B0C
:102A100049CD2EDD28E0022B45CD2ADD20E1022B19
:102A200041CD26DD20E2022B3DCD22DD20E4022B2C
:102A300039CD1EDD20E8022B35CDF6EB44912EBAC0
:102A400040F90601E12FF0E8EF1B0F1A12080E0EF5
:102A5000121C0ABDE12DF4EBF491E02DF7FF019378
:102A6000F7FD0E945420EE27E92FF4EBF491E82FB4
:102A7000F7FF0190F7FD059097FD06FCE02D01960C
:102A8000F5E00994E92FF4EBF491E82FF7FF1191A9
:102A9000F7FD1591F7FF0191F7FD05910296F2E11F
:102AA000E5E6000FF21DE00FF21D09940C94CC0234
:102AB0000C9447000C9455000C9460000C94630037
:102AC0000C9469000C946F000C9479000C948000B5
:102AD0000C9456170C9490000C9499000C949C0044
:102AE0000C94A2000C94A8000C94B2000C94B900B1
:102AF0000C94BE000C94CC000C94D7000C94DA001B
:102B00000C94E0000C94E6000C94F0000C94F5009A
:102B10000C945B170C94FD000C9406010C940901B5
:102B20000C940F010C9415010C941F010C942401BA
:102B30000C9460170C946E170C9484170C948717E0
:102B40000C948D170C9493170C9463010C947D01D5
:102B50000C949D170C94A2170C94BC170C94BF17DF
:102B60000C94C5170C94CB170C94B8010C94BC01B1
:102B70000C94BE010C94CC010C94E4010C94D51778
:102B80000C94DC170C94E3170C940D020C941102B6
:102B90000C94F1170C9419020C942F020C9432022D
:102BA0000C9438020C943E020C9448020C944C0293
:102BB0000C944D020C944F020C9451020C94F61795
:102BC0000C94F8170C94FA170C945A020C945C02AB
:102BD0000C945E020C945F020C9461020C94FD173D
:102BE0000C94FF170C9401180C946A020C946C025C
:102BF0000C946E020C9470020C9471020C940418E4
:102C00000C9406180C9408180C947A020C947C020C
:102C10000C947E020C9480020C9482020C940B188B
:102C20000C940D180C940F180C948A020C94121822
:102C30000C9414180C9416180C9418180C941A1858
:102C40000C941B180C941D180C9420180C9422182A
:102C50000C9424180C9426180C9428180C942A18F8
:102C60000C942C180C942D180C9430180C943218C9
:102C70000C9434180C9436180C9438180C943A1898
:102C80000C943C180C94B8020C943E180C94BB02A3
:102C90000C94BD020C94BF020C94C1020C94401819
:102CA0000C9442180C9444180C94CA020C9400061C
:102CB0000C9402060C9404060C9406060C94471817
:102CC0000C944A180C944D180C9416060C94180683
:102CD0000C941B060C941E060C9421060C9451189F
:102CE0000C9455180C9459180C9435060C9438060D
:102CF0000C943A060C943C060C943E060C945E1818
:102D00000C9461180C9464180C944E060C945006A4
:102D10000C9454060C9458060C945C060C94681899
:102D20000C946D180C9472180C9474060C9478061C
:102D30000C947A060C947C060C947E060C947818FD
:102D40000C947B180C947E180C948E060C949006B0
:102D50000C9492060C9494060C9496060C9482188B
:102D60000C9485180C9488180C94A6060C94A8064C
:102D70000C94AA060C94AC060C94AE060C948C1819
:102D80000C948F180C9492180C94BE060C94C006E8
:102D90000C94C2060C94C4060C94C6060C949618A7
:102DA0000C9499180C949C180C94D6060C94D80684
:102DB0000C94DA060C94E2060C94E4060C94F306E8
:102DC0000C94F5060C94FD060C9408070C940A0765
:102DD0000C940C070C940E070C94A0180C9412077A
:102DE0000C9414070C9416070C9422070C942407D7
:102DF0000C9426070C942E070C9430070C943E0775
:102E00000C9440070C9448070C9453070C945507F6
:102E10000C9457070C9473070C9475070C94830754
:102E20000C94A2180C9487070C9494070C949607A2
:102E30000C94A4180C94A0070C94AC180C94AB0739
:102E40000C94B5180C94B5070C94C0070C94C207E9
:102E50000C94BD180C94C7070C94BF180C94CD07A4
:102E60000C94C3180C94D1070C94DC070C94DE0767
:102E70000C94E0070C94E8070C94EA070C94EB0719
:102E80000C94ED070C94F5070C9400080C940208C0
:102E90000C94C4180C9407080C9409080C940A08A4
:102EA0000C94C7180C940E080C9419084695E80C5D
:102EB000F91C441F6EC14695EA0CFB1C441F69C1F6
:102EC000E92FF4EBF491E82FF7FFE190F7FDE5909F
:102ED000F7FFF190F7FDF59002965CC1E92FF4EB56
:102EE000F491E82FF7FFA191F7FDA591F7FFB191BC
:102EF000F7FDB5910296EB2FF4EBF491EA2FF7FF73
:102F0000E192F7FFF19246C1E30CF21C43C140FB92
:102F1000F30C4FB740F92EBA3DC140FBF3184FB741
:102F200040F93EBA37C1E92FF4EBF491E82FF7FFEF
:102F3000F190F7FDF59001962DC14695EE0CFF1C22
:102F4000441F27C1E92FF4EBF491E82FF7FFA1917B
:102F5000F7FDA591F7FFB191F7FDB5910296EB2F23
:102F6000F4EBF491EA2FF7FFE190F7FDE590F7FF1E
:102F7000F190F7FDF5900EC1E318F2080BC140FB8C
:102F8000E30C4FB740F92EBA05C140FBE3184FB729
:102F900040F93EBAFFC0E92FF4EBF491E82FF7FFB8
:102FA000E190F7FDE5900196F5C013D140FB030DCC
:102FB0004FB740F92EBA30C10CD140FB03194FB7BF
:102FC00040F93EBA29C1E92FF4EBF491E82FF7FF5D
:102FD0001191F7FD1591F7FF0191F7FD059102960B
:102FE0001BC14695E40CF51C441FD3C09F2CD2C0D6
:102FF0009E2CD0C0EED0902ECDC08F2CCBC08E2C6E
:10300000C9C0E7D0802EC6C0BF2CC4C0BE2CC2C071
:10301000E0D0B02EBFC0AF2CBDC0AE2CBBC0D9D04D
:10302000A02EB8C0F92CB6C0F82CB4C0FB2CB2C08E
:10303000FA2CB0C0AFC0FE2CADC0CBD0F02EAAC0D1
:10304000F52EA8C0E92CA6C0E82CA4C0EB2CA2C089
:10305000EA2CA0C0EF2C9EC09DC0BBD0E02E9AC031
:10306000E52E98C0092DCFC0082DCDC00B2DCBC0AB
:103070000A2DC9C0072FC7C0062FC5C0052FC3C062
:103080005F2D88C05E2D86C0A4D0502F83C05F0DF9
:103090000C94DB025E0D0C94DB029BD0500F0C9461
:1030A000DB0246955F1D0C94DB0246955E1D0C9479
:1030B000DB028FD04695501F0C94DB025F190C94F5
:1030C000EC025E190C94EC0284D0501B0C94EC02C0
:1030D000469518945F090C94EC02469518945E0985
:1030E0000C94EC0276D046951894500B0C94EC029C
:1030F0005F210C9406045E210C9406046AD05023D0
:103100000C9406045F250C9419045E250C94190494
:1031100060D050270C9419045F290C9419045E297F
:103120000C94190456D0502B0C9419045F150C9470
:10313000EC025E150C94EC024CD050170C94EC028F
:103140000C94FC1B0C941012E20122962E01DF73EA
:10315000DE5FFA90EA901EC0E201DF73DE5F099045
:103160001990FA92EA92700115C0E20122972E019D
:10317000DF73DE5FE992F9920DC0C7010BC0050154
:103180005701700107C006C04E2C5F2C03C00C9481
:10319000CA182EBAEE27E92FF4EBF491E82FF7FFC7
:1031A0000190F7FD059097FD06FCE02D0196F5E0F6
:1031B0000994E92FF4EBF491E82FF7FF0191F7FD63
:1031C00005910196F5E1E6E5000FF21DE00FF21D15
:1031D0000994E92FF4EBF491E82FF7FF1191F7FD33
:1031E000159101960701E12FF0E8EF1B0F1A120865
:1031F0000E0E121CE12DF4EBF491E02DF7FF01917E
:10320000F7FD05910895E92FF4EBF491E82FF7FF0E
:103210001191F7FD159101960701E12FF0E8EF1BE1
:103220000F1A12080E0E121C0ABDE12DF4EBF491D8
:10323000E02DF7FF0193F7FD0E945420ABCF0C94D3
:10324000CC020C9447000C9455000C9460000C9434
:1032500063000C9469000C941F1B0C9479000C946F
:1032600080000C948A000C9490000C9499000C94AB
:103270009C000C94A2000C94251B0C94B2000C949E
:10328000B9000C94BE000C94CC000C94D7000C94A4
:10329000DA000C94E0000C942B1B0C94F0000C94BE
:1032A000F5000C94F7000C94FD000C9406010C94AE
:1032B00009010C940F010C94311B0C941F010C9408
:1032C00024010C9426010C9434010C944A010C94B2
:1032D0004D010C9453010C94381B0C9463010C9415
:1032E0007D010C947F010C9485010C949F010C943A
:1032F000A2010C94A8010C943D1B0C94B8010C94F1
:10330000BC010C94BE010C94CC010C94E4010C940F
:10331000E7010C94F5010C94441B0C940D020C94E1
:1033200011020C9413020C9419020C942F020C94A9
:1033300032020C9438020C944A1B0C9448020C94F0
:103340004C020C944D020C944F020C9451020C94BC
:1033500053020C9455020C944F1B0C945A020C947B
:103360005C020C945E020C945F020C9461020C945B
:1033700063020C9465020C94581B0C946A020C9422
:103380006C020C946E020C9470020C9471020C94FA
:1033900073020C9475020C94611B0C947A020C94C9
:1033A0007C020C947E020C9480020C9482020C9499
:1033B00083020C9485020C946A1B0C948A020C9470
:1033C0008C020C948E020C9490020C9492020C9439
:1033D00094020C9495020C94731B0C949A020C9416
:1033E0009C020C949E020C94A0020C94A2020C94D9
:1033F000A4020C94A6020C947C1B0C94AA020C94BC
:10340000AC020C94AE020C94B0020C94B2020C9478
:10341000B4020C94B6020C94851B0C94B9020C9463
:10342000BB020C94BD020C94BF020C94C1020C941C
:10343000C3020C94C5020C948E1B0C94CA020C940B
:1034400000060C9402060C9404060C9406060C94D8
:1034500008060C940A060C94971B0C9416060C9400
:1034600018060C941B060C941E060C9421060C9452
:1034700024060C9427060C949B1B0C9435060C9484
:1034800038060C943A060C943C060C943E060C94B8
:1034900040060C9442060C949F1B0C944E060C9410
:1034A00050060C9454060C9458060C945C060C942C
:1034B00060060C9464060C94A31B0C9474060C9484
:1034C00078060C947A060C947C060C947E060C9478
:1034D00080060C9482060C94A71B0C948E060C9408
:1034E00090060C9492060C9494060C9496060C94F8
:1034F00098060C949A060C94AB1B0C94A6060C949C
:10350000A8060C94AA060C94AC060C94AE060C9477
:10351000B0060C94B2060C94AF1B0C94BE060C942F
:10352000C0060C94C2060C94C4060C94C6060C94F7
:10353000C8060C94CA060C94B31B0C94D6060C94C3
:10354000D8060C94DA060C94E2060C94E4060C946B
:10355000F3060C94F5060C94B71B0C9408070C9416
:103560000A070C940C070C940E070C9410070C948B
:1035700012070C9414070C94BB1B0C9422070C9498
:1035800024070C9426070C942E070C9430070C94F7
:103590003E070C9440070C94BF1B0C9453070C94EB
:1035A00055070C9457070C9473070C9475070C94EB
:1035B00083070C9485070C94C31B0C9494070C94FC
:1035C00096070C9498070C94A0070C94A2070C94EF
:1035D000AB070C94AD070C94C71B0C94C0070C945C
:1035E000C2070C94C4070C94C7070C94C9070C9429
:1035F000CD070C94CF070C94CB1B0C94DC070C94D8
:10360000DE070C94E0070C94E8070C94EA070C948E
:10361000EB070C94ED070C94CF1B0C9400080C9452
:1036200002080C9404080C9407080C9409080C94E4
:103630000A080C940C080C94D31B0C941908D2DDC6
:1036400007FB000F00F9E02FB2C0CCDD00FB0695B0
:1036500007F9E02FACC0C6DD469507FB001FE02F41
:10366000A6C0C0DD242F269500FB0795E02F9FC044
:10367000B9DD07FB000FE02F9AC0B4DD202F220F29
:1036800000FB0795E02F93C0ADDD07FB000F03297A
:10369000E02F8DC0A7DD00FB0695E02F88C0A2DDDE
:1036A000202F209520FB41F94B7F2EBA406283C02A
:1036B00099DD202F209521FB41F94B7F2EBA4062E6
:1036C0007AC090DD202F209522FB41F94B7F2EBA46
:1036D000406271C087DD202F209523FB41F94B7F8D
:1036E0002EBA406268C07EDD202F209524FB41F970
:1036F0004B7F2EBA40625FC075DD202F209525FBE1
:1037000041F94B7F2EBA406256C06CDD202F2095C8
:1037100026FB41F94B7F2EBA40624DC063DD202F5E
:10372000209527FB41F94B7F2EBA406244C05ADDF9
:103730002EEF022371CD56DD2DEF02236DCD52DD2C
:103740002BEF022369CD4EDD27EF022365CD4ADD45
:103750002FEE022361CD46DD2FED02235DCD42DD4C
:103760002FEB022359CD3EDD2FE7022355CD3ADD65
:1037700021E0022B51CD36DD22E0022B4DCD32DD92
:1037800024E0022B49CD2EDD28E0022B45CD2ADD99
:1037900020E1022B41CD26DD20E2022B3DCD22DDB2
:1037A00020E4022B39CD1EDD20E8022B35CDF6EBCF
:1037B00044912EBA40F90701E12FF0E8EF1B0F1AF0
:1037C00012080E0E121C0ABDE12DF4EBF491E02D4F
:1037D000F7FF0193F7FD0E945420EE27E92FF4EB49
:1037E000F491E82FF7FF0190F7FD059097FD06FC97
:1037F000E02D0196F5E00994E92FF4EBF491E82F20
:10380000F7FF1191F7FD1591F7FF0191F7FD059174
:103810000296F9E1EFE1000FF21DE00FF21D0994AD
:103820003EBAEE27E92FF4EBF491E82FF7FF019071
:10383000F7FD059097FD06FCE02D0196F5E0099453
:10384000E92FF4EBF491E82FF7FF0191F7FD0591D3
:103850000196FCE1EEE2E00FF21D099437C136C19A
:1038600035C134C133C132C131C130C12FC12EC1C4
:103870002DC1F4C011C113C11EC128C127C126C169
:1038800011C113C115C122C121C120C11FC11EC157
:103890001DC11CC11BC11AC119C118C117C116C154
:1038A00015C114C113C112C111C110C10FC10EC184
:1038B0000DC10CC10BC10AC109C108C107C106C1B4
:1038C00005C104C103C102C101C100C1FFC0FEC0E6
:1038D000FDC0FCC0FBC0FAC0F9C0F8C0F8C0FCC015
:1038E00000C105C11AC11DC11FC121C123C127C10A
:1038F0002BC130C112C148C1E9C049C14BC14FC140
:1039000053C158C10AC10DC16BC16DC16FC173C133
:1039100077C17CC102C138C193C196C198C19CC115
:10392000A0C1D4C0FAC0FDC0D1C0A1C1C1C1C5C130
:10393000C9C1CCC0F2C028C1C9C0CAC1EAC1C6C091
:10394000EDC1F2C1EAC0EDC0C1C0C0C003C207C230
:103950000BC210C2E2C018C1B9C0B8C0B7C0B6C06F
:10396000B5C0B4C0B3C0B2C0B1C0B0C0AFC0AEC0CB
:10397000ADC0ACC0ABC0AAC0A9C0A8C0A7C0A6C0FB
:10398000A5C0A4C0A3C0A2C0A1C0A0C09FC09EC02B
:103990009DC09CC09BC09AC099C098C005C210C26F
:1039A00022C236C293C092C091C090C044C24FC2DE
:1039B00061C275C28BC08AC089C088C083C28DC2F3
:1039C000A4C2B6C283C082C081C080C0C2C2CCC201
:1039D000E3C2F5C27BC07AC079C078C077C076C038
:1039E00075C074C073C072C071C070C06FC06EC04B
:1039F0006DC06CC06BC06AC069C068C067C066C07B
:103A000065C064C063C062C061C060C05FC05EC0AA
:103A10005DC05CC05BC05AC059C058C057C056C0DA
:103A200055C054C053C052C051C050C04FC04EC00A
:103A30004DC04CC04BC04AC049C048C047C046C03A
:103A400045C044C043C042C041C040C03FC03EC06A
:103A50003DC03CC03BC03AC039C038C077FD14C03F
:103A6000F8946093340270933502789420920601A2
:103A70000091350207FDD5CE009106010030C1F35B
:103A80000FEF00933502CDCE009106010030E1F337
:103A90000FEF00933502C5CE0E94D527C2CE0E94FB
:103AA0002B28BFCE0E94C127BCCE0E94CB27B9CE07
:103AB0000E946228B6CEB4012092210120922001FA
:103AC00020921001A0E8A0933B02ABCEAACE9401B5
:103AD0000E940320902EA5CE9401092D0E94332030
:103AE000A0CE46951894680979094FB799CEE92F69
:103AF000F4EBF491E82FF7FFA191F7FDA591F7FF03
:103B0000B191F7FDB5910296EB2FF4EBF491EA2F0A
:103B1000F7FF8192F7FF919284CE51954FB73EBA4D
:103B200080CE68940C94D803209227017ACE5093CB
:103B3000210177CE94010E940320802E72CE940141
:103B4000082D0E9433206DCE4695681D791D4FB714
:103B50002EBA67CEE92FF4EBF491E82FF7FFA1918D
:103B6000F7FDA591F7FFB191F7FDB5910296EB2F07
:103B7000F4EBF491EA2FF7FF8190F7FD8590F7FFC2
:103B80009190F7FD95904DCE68940C94D803509386
:103B9000200147CE94010E940320B02E42CE940112
:103BA0000B2D0E9433203DCE469518946A097B095F
:103BB0004FB736CEE92FF4EBF491E82FF7FFA19140
:103BC000F7FDA591F7FFB191F7FDB5910296EB2FA7
:103BD000F4EBF491EA2FF7FFA192F7FFB19221CE17
:103BE000309227011ECE509121011BCE94010E94DC
:103BF0000320A02E16CE94010A2D0E94332011CE50
:103C000046956A1D7B1D4FB72EBA0BCEE92FF4EBFC
:103C1000F491E82FF7FFA191F7FDA591F7FFB1917E
:103C2000F7FDB5910296EB2FF4EBF491EA2FF7FF35
:103C3000A190F7FDA590F7FFB190F7FDB590F1CDFC
:103C400002E000932701EDCD50912001EACD9401CF
:103C50000E940320702FE5CD9401072F0E9433208E
:103C6000E0CD46951894660B770B4FB7D9CDE72F6B
:103C7000F4EBF491E62FF7FF0191F7FD0591152F75
:103C8000507F202F2F70522B02950F701F701295AE
:103C9000012B0ABDE72FF4EBF491E62FF7FF019318
:103CA000F7FD0E945420E52FF5EB44912EBAB9CDD3
:103CB00094010E940320602FB4CD9401062F0E942E
:103CC0003320AFCD4695661F771F4FB72EBAA9CDCB
:103CD000E72FF4EBF491E62FF7FF0191F7FD059143
:103CE000152F507F202F22952F70522B0295007F89
:103CF0001F70012B0ABDE72FF4EBF491E62FF7FFBD
:103D00000193F7FD0E945420E52FF5EB44912EBA64
:103D100088CD94010E940320402F83CD46951894AE
:103D2000640975094FB77CCDE92FF4EBF491E82FC6
:103D3000F7FFA191F7FDA591F7FFB191F7FDB591BF
:103D40000296EB2FF4EBF491EA2FF7FF4192F7FF85
:103D5000519267CD94010E940320502F62CD9401AF
:103D6000052F0E9433205DCD4695641D751D4FB70C
:103D70002EBA57CDE92FF4EBF491E82FF7FFA1917C
:103D8000F7FDA591F7FFB191F7FDB5910296EB2FE5
:103D9000F4EBF491EA2FF7FF4190F7FD4590F7FF20
:103DA0005190F7FD55903DCD1BD1630D721DA30CB5
:103DB000B21C477D2EBA8318920809F0486031CDB5
:103DC000E72FF4EBF491E62FF7FF0191F7FD059152
:103DD00050174FB7630D720948603EBA83189208B6
:103DE00009F4477F1ECD94010E9403200ABDE72FEE
:103DF000F4EBF491E62FF7FF0193F7FD0E945420B6
:103E0000630D721D3EBA4D7F931809F4426009CDCF
:103E1000E72FF4EBF491E62FF7FF0191F7FD059101
:103E200094010E943320630D721D3EBA4D7F93189A
:103E300009F44260F6CCD4D063197209A318B20811
:103E4000477D3EBA8318920809F04860EACCE72F14
:103E5000F4EBF491E62FF7FF0191F7FD0591501770
:103E60004FB76319720948603EBA8318920809F483
:103E7000477FD7CC94010E9403200ABDE72FF4EBC3
:103E8000F491E62FF7FF0193F7FD0E945420631988
:103E900072093EBA4D7F931809F44260C2CCE72FF5
:103EA000F4EBF491E62FF7FF0191F7FD05919401F2
:103EB0000E943320631972093EBA4D7F931809F4AA
:103EC0004260AFCC8DD0630D721DA30CB21C831861
:103ED0009208C1F7477D2EBAA4CC40FBE72FF4EB44
:103EE000F491E62FF7FF0191F7FD059150174FB7B9
:103EF00040F94860630D721D8318920841FF71F705
:103F0000092D082909F4477F8BCC94010E940320D6
:103F10000ABDE72FF4EBF491E62FF7FF0193F7FDCD
:103F20000E945420630D721D931879F7426078CC7B
:103F3000E72FF4EBF491E62FF7FF0191F7FD0591E0
:103F400094010E943320630D721D931889F742601B
:103F500067CC46D063197209A318B2088318920877
:103F6000C1F7477D2EBA5DCC40FBE72FF4EBF4910F
:103F7000E62FF7FF0191F7FD059150174FB740F974
:103F80004860631972098318920841FF71F7092D7F
:103F9000082909F4477F44CC94010E9403200ABDFC
:103FA000E72FF4EBF491E62FF7FF0193F7FD0E9462
:103FB000542063197209931879F7426031CCE72FC6
:103FC000F4EBF491E62FF7FF0191F7FD05919401D1
:103FD0000E94332063197209931889F7426020CC3C
:103FE000E72FF4EBF491E62FF7FF0191F7FD059130
:103FF0000ABDEB2DF4EBF491EA2DF7FF0193F7FDE9
:104000000E94542008952E3F99F40FEF3F3751F44A
:1040100030910601303A11F40EEF08953D3E11F44F
:104020000EEF089500902502201561F400912602FC
:104030002F3E41F409D0333021F00B2F313009F0FD
:104040000A2F08950FEF089500915801ACE9BCE9DB
:10405000045610F0B395FCCF0C590A5010F0A395FC
:10406000FCCF0A5508952E3F19F43092100108959F
:104070002D3F09F40895203051F42092060130922A
:104080000F0130913B02306830933B02089520309D
:1040900051F42092060120920F0100913B020E7F05
:1040A00000933B0208950895F03C49F4E33639F457
:1040B0000AB5E0915C01E3FD017000935801089599
:1040C00000E8A0E0B1E02D920A95E9F7A0E0B2E0A7
:1040D0002D92B530E9F7A0E0A1B9A0E0A2B9A0E027
:1040E000A4B9A0E0A5B9A0E0A7B9A0E0A8B9A0E054
:1040F000AAB9A0E0ABB9AA273299A1603499A2600D
:104100003399A460A0931101569A559A2092C00049
:10411000A0E1A093C100A6E6A093C200A091110166
:10412000A1FD45C0A0FD2AC0B2ECB0938000B9E16A
:10413000B0938100F2E0EBE8F0938700E093860013
:10414000F8E420928900F0938800FEE120928B0031
:10415000F0938A00A4E0A0936F005F982092CD00B6
:104160002092CC00A8E1A093C900A2ECA093CA00C1
:104170002092CD002092CC0053980895A0E1A2B9DE
:10418000AFEFA1B9B2ECB0938000B9E1B093810078
:10419000F5E0ECE6F0938700E0938600F8E42092E7
:1041A0008900F0938800A1E0A0936F000895B2EC1D
:1041B000B0938000B9E1B0938100F4E0A0FFF4E097
:1041C000F0938700FEEFA0FFF6EFF09386002092B9
:1041D0008900F4E5F0938800F4E0F0938B00F8EDAB
:1041E000F0938A00A6E0A0936F005F9A3F9A08952B
:1041F00020920701009107010030E1F30895FAE0F1
:1042000060FCF5E003C0FF2732FDFFE0C0E8F2B933
:10421000AFE4C0B9AA95C0B9E1F7F0931201C9C0E3
:10422000FF2732FDFFE0E0E8F2B9AFE4E0B9AA957C
:10423000E0B9E1F7F0E232FDFFE2F0931201E0E4D1
:10424000E9B9B7C0FF93EF93CF93BF93AF93FFB795
:10425000FF9314983F9330911101C0E8F09112013F
:10426000F2B9630C169A0000C0B90000C0B9000092
:104270001698F62DF030A1F2F83128F2F83D18F03A
:10428000F03F08F201C04FC066246A947394A09175
:104290000C02B0910D02BF73BE5F1196A093000196
:1042A000B0930101E9E1E0932802E0913402F0913A
:1042B0003502BF2FC0911001C0FD3197B078FB2BA4
:1042C000E0933402F0933502E0910601F9E5EE0F38
:1042D000FF1FA591B591E0910401E2FDB160A093AB
:1042E0002502B0932602AF3F81F0E0913B02E068E7
:1042F000E0933B02E0910F01E0FF07C0A0913B0279
:10430000A160A0933B0220920F01E0910601E93EDB
:1043100049F4E0910401E2FF05C0E4FF03C021B8C5
:104320000C94000046C0A0913B02A7FF68CFFF2776
:1043300032FDFFE0C0E8F2B9A8E0C0B90000C0B9A2
:10434000AA95D9F7A0910001B0910101E62DE8519D
:10435000E770E730CFB7C1FBF7EBFE0FC0E84F9334
:104360005F93DF9352E4ED91E6FD0FC0449132FF7D
:104370004095D42FD295DF70D2B9C0B94F70C0B973
:1043800042B9C0B95250C0B971F75B5FFF2732FD27
:10439000FFE0F2B9C0B90000C0B95A95D9F7F0935F
:1043A0001201DF915F914F9126F4A0930001B09329
:1043B00001013F919EC4FF93EF93CF93BF93AF93BF
:1043C000FFB7FF93AFE0AA95F1F7630C721CE09181
:1043D0000E01E8B9789470FC04C0F0EC6F1608F494
:1043E0007FC0E0911101FBEFE0FFF9ED6F1639F4AA
:1043F0005E98E2FF96C3B2E8B093800092C3FEEFEE
:10440000E0FFFCED6F1639F45E9AE2FF8AC3B2EC6E
:10441000B093800086C3FBE1E0FFFBEE6F1621F452
:10442000E0E8E0930E017DC3F0EFE0FFF0ED6F16E2
:1044300019F420920E0175C3F8E3E0FFF6E06F1661
:1044400009F06FC3AFEF6A2E7A2EE9E1E0932802FC
:10445000E0913402F0913502BF2FC0911001C0FDF0
:104460003197B078FB2BE0933402F0933502A091A2
:104470000C02B0910D02BF73BE5F1196A0930001B4
:10448000B0930101E0910601F9E5EE0FFF1FA59140
:10449000B591E0910401E2FDB160A0932502B093D3
:1044A0002602AF3F81F0E0913B02E068E0933B02DF
:1044B000E0910F01E0FF07C0A0913B02A160A09333
:1044C0003B0220920F01E0910601E93E41F4E091A8
:1044D0000401E2FF04C0E4FF02C00C94000021C309
:1044E000A0913B02A7FF1DC3A0918400A09185006D
:1044F000A130B1F7A0918400AE31E0F3AF3100F00C
:10450000A03200F0A13200F0A23200F04F935F938E
:10451000DF93A0910001B0910101E62DE770F7EB68
:10452000FE0F50E8ED91E6FDEFC2C491E0E1E5BF7A
:10453000C8B9DC2FCC0FC8B9CC0FD295C8B94C2F55
:10454000CC0FC8B9ED91D8B9DD0F4295D8B9C49157
:1045500048B9440F000048B9E6FDD6C2C8B9DC2FFF
:10456000CC0FC8B9CC0FD295C8B94C2FCC0FC8B955
:10457000ED91D8B9DD0F4295D8B9C49148B9440F2F
:10458000000048B9E6FDC0C2C8B9DC2FCC0FC8B9DD
:10459000CC0FD295C8B94C2FCC0FC8B9ED91D8B972
:1045A000DD0F4295D8B9C49148B9440F000048B90D
:1045B000E6FDAAC2C8B9DC2FCC0FC8B9CC0FD29582
:1045C000C8B94C2FCC0FC8B9ED91D8B9DD0F4295C1
:1045D000D8B9C49148B9440F000048B9E6FD94C267
:1045E000C8B9DC2FCC0FC8B9CC0FD295C8B94C2FA5
:1045F000CC0FC8B9ED91D8B9DD0F4295D8B9C491A7
:1046000048B9440F000048B9E6FD7EC2C8B9DC2FA6
:10461000CC0FC8B9CC0FD295C8B94C2FCC0FC8B9A4
:10462000ED91D8B9DD0F4295D8B9C49148B9440F7E
:10463000000048B9E6FD68C2C8B9DC2FCC0FC8B984
:10464000CC0FD295C8B94C2FCC0FC8B9ED91D8B9C1
:10465000DD0F4295D8B9C49148B9440F000048B95C
:10466000E6FD52C2C8B9DC2FCC0FC8B9CC0FD29529
:10467000C8B94C2FCC0FC8B9ED91D8B9DD0F429510
:10468000D8B9C49148B9440F000048B9E6FD3CC20E
:10469000C8B9DC2FCC0FC8B9CC0FD295C8B94C2FF4
:1046A000CC0FC8B9ED91D8B9DD0F4295D8B9C491F6
:1046B00048B9440F000048B9E6FD26C2C8B9DC2F4E
:1046C000CC0FC8B9CC0FD295C8B94C2FCC0FC8B9F4
:1046D000ED91D8B9DD0F4295D8B9C49148B9440FCE
:1046E000000048B9E6FD10C2C8B9DC2FCC0FC8B92C
:1046F000CC0FD295C8B94C2FCC0FC8B9ED91D8B911
:10470000DD0F4295D8B9C49148B9440F000048B9AB
:10471000E6FDFAC1C8B9DC2FCC0FC8B9CC0FD295D1
:10472000C8B94C2FCC0FC8B9ED91D8B9DD0F42955F
:10473000D8B9C49148B9440F000048B9E6FDE4C1B6
:10474000C8B9DC2FCC0FC8B9CC0FD295C8B94C2F43
:10475000CC0FC8B9ED91D8B9DD0F4295D8B9C49145
:1047600048B9440F000048B9E6FDCEC1C8B9DC2FF6
:10477000CC0FC8B9CC0FD295C8B94C2FCC0FC8B943
:10478000ED91D8B9DD0F4295D8B9C49148B9440F1D
:10479000000048B9E6FDB8C1C8B9DC2FCC0FC8B9D4
:1047A000CC0FD295C8B94C2FCC0FC8B9ED91D8B960
:1047B000DD0F4295D8B9C49148B9440F000048B9FB
:1047C000E6FDA2C1C8B9DC2FCC0FC8B9CC0FD29579
:1047D000C8B94C2FCC0FC8B9ED91D8B9DD0F4295AF
:1047E000D8B9C49148B9440F000048B9E6FD8CC15E
:1047F000C8B9DC2FCC0FC8B9CC0FD295C8B94C2F93
:10480000CC0FC8B9ED91D8B9DD0F4295D8B9C49194
:1048100048B9440F000048B9E6FD76C1C8B9DC2F9D
:10482000CC0FC8B9CC0FD295C8B94C2FCC0FC8B992
:10483000ED91D8B9DD0F4295D8B9C49148B9440F6C
:10484000000048B9E6FD60C1C8B9DC2FCC0FC8B97B
:10485000CC0FD295C8B94C2FCC0FC8B9ED91D8B9AF
:10486000DD0F4295D8B9C49148B9440F000048B94A
:10487000E6FD4AC1C8B9DC2FCC0FC8B9CC0FD29520
:10488000C8B94C2FCC0FC8B9ED91D8B9DD0F4295FE
:10489000D8B9C49148B9440F000048B9E6FD34C105
:1048A000C8B9DC2FCC0FC8B9CC0FD295C8B94C2FE2
:1048B000CC0FC8B9ED91D8B9DD0F4295D8B9C491E4
:1048C00048B9440F000048B9E6FD1EC1C8B9DC2F45
:1048D000CC0FC8B9CC0FD295C8B94C2FCC0FC8B9E2
:1048E000ED91D8B9DD0F4295D8B9C49148B9440FBC
:1048F000000048B9E6FD08C1C8B9DC2FCC0FC8B923
:10490000CC0FD295C8B94C2FCC0FC8B9ED91D8B9FE
:10491000DD0F4295D8B9C49148B9440F000048B999
:10492000E6FDF2C0C8B9DC2FCC0FC8B9CC0FD295C8
:10493000C8B94C2FCC0FC8B9ED91D8B9DD0F42954D
:10494000D8B9C49148B9440F000048B9E6FDDCC0AD
:10495000C8B9DC2FCC0FC8B9CC0FD295C8B94C2F31
:10496000CC0FC8B9ED91D8B9DD0F4295D8B9C49133
:1049700048B9440F000048B9E6FDC6C0C8B9DC2FED
:10498000CC0FC8B9CC0FD295C8B94C2FCC0FC8B931
:10499000ED91D8B9DD0F4295D8B9C49148B9440F0B
:1049A000000048B9E6FDB0C0C8B9DC2FCC0FC8B9CB
:1049B000CC0FD295C8B94C2FCC0FC8B9ED91D8B94E
:1049C000DD0F4295D8B9C49148B9440F000048B9E9
:1049D000E6FD9AC0C8B9DC2FCC0FC8B9CC0FD29570
:1049E000C8B94C2FCC0FC8B9ED91D8B9DD0F42959D
:1049F000D8B9C49148B9440F000048B9E6FD84C055
:104A0000C8B9DC2FCC0FC8B9CC0FD295C8B94C2F80
:104A1000CC0FC8B9ED91D8B9DD0F4295D8B9C49182
:104A200048B9440F000048B9E6FD6EC0C8B9DC2F94
:104A3000CC0FC8B9CC0FD295C8B94C2FCC0FC8B980
:104A4000ED91D8B9DD0F4295D8B9C49148B9440F5A
:104A5000000048B9E6FD58C0C8B9DC2FCC0FC8B972
:104A6000CC0FD295C8B94C2FCC0FC8B9ED91D8B99D
:104A7000DD0F4295D8B9C49148B9440F000048B938
:104A8000E6FD42C0C8B9DC2FCC0FC8B9CC0FD29517
:104A9000C8B94C2FCC0FC8B9ED91D8B9DD0F4295EC
:104AA000D8B9C49148B9440F000048B9E6FD2CC0FC
:104AB000C8B9DC2FCC0FC8B9CC0FD295C8B94C2FD0
:104AC000CC0FC8B9ED91D8B9DD0F4295D8B9C491D2
:104AD00048B9440F000048B9E6FD16C0C8B9DC2F3C
:104AE000CC0FC8B9CC0FD295C8B94C2FCC0FC8B9D0
:104AF000ED91D8B9DD0F4295D8B9C49148B9440FAA
:104B0000000048B9E6FD00C058B925BEE62DE770A3
:104B1000E73021F4A0930001B0930101DF915F9190
:104B20004F91E7C0A73E11F45E98E3C0A93E11F48F
:104B30005E9ADFC0A73009F0DCC0AFEF6A2E7A2E94
:104B4000E9E1E0932802E0913402F0913502BF2FB1
:104B5000C0911001C0FD3197B078FB2BE093340277
:104B6000F0933502A0910C02B0910D02BF73BE5FAD
:104B70001196A0930001B0930101E0910601F9E5BF
:104B8000EE0FFF1FA591B591E0910401E2FDB16028
:104B9000A0932502B0932602AF3F81F0E0913B0243
:104BA000E068E0933B02E0910F01E0FF07C0A091B5
:104BB0003B02A160A0933B0220920F01E09106010D
:104BC000E93E41F4E0910401E2FF04C0E4FF02C0C9
:104BD0000C9400008EC0E0918400E036E0F3E136F2
:104BE00000F0E23600F0E33600F0E43600F0EFEFDC
:104BF000C8E1C093C900C0E2E093CE00F3E0FA95AB
:104C0000F1F7CA950000FFE3B9F72092C90065C02B
:104C100047985F991895FF93EF93CF93BF93AF9306
:104C2000FFB7FF93630C721CD301B695A795B0FD37
:104C300006C0A25080F2A03C18F0A23C60F272CFF5
:104C4000A0913B02A7FF55C0A0910001B0910101C6
:104C5000E62DE450EF70EF30CFB7C1FBC091840078
:104C6000C435E0F3C53500F0C63500F0C73500F0B7
:104C7000C83500F0E695F7EBFE0FC0E2ED910000BD
:104C80000000E6FD16C0E491C8E1C093C900E093BE
:104C9000CE00CFE1ED91E6FD0AC000000000E491F6
:104CA0000000E093CE000000CA95A1F71196C03035
:104CB00069F0F8E1F093C900EFEFE093CE00000057
:104CC0000000000000000000CA95F1CFC0E8C093CA
:104CD000CE0000002092C90046F0FF91FFBFAF91C7
:104CE000BF91CF91EF91FF911895A0930001B093E0
:104CF0000101E091C000E7FF48C0E091C600A0912B
:104D00000401FFEAB491B0FF1BC0A7FF03C02092CB
:104D100006010BC0F0EBEF77A6FDF395A0FDE06870
:104D2000E491E0930601E0930701AF71A0930401C1
:104D3000FF91FFBFAF91BF91CF91EF91FF91189578
:104D4000E7FF0EC0E03F11F4A0681DC0E03E41F453
:104D5000A06419C0A6FDE9CFA160A7FDAE7FE5CF95
:104D6000E231C1F3E935B1F3E43121F4A460A7FDE8
:104D7000AB7FDBCFE13121F4A061A7FDAF7ED5CFC2
:104D800020920601AF71A0930401FF91FFBFAF9184
:104D9000BF91CF91EF91FF911895A0E0B0E02CBCAE
:104DA0002C9A249A259A279A219A29982092580178
:104DB00020925C010000000000001197D9F7E8D2B2
:104DC000ABE0B0E1A0931301B0931401A0915C019A
:104DD000A7FF0EC043D0A0915C01A7FF089550D358
:104DE000ABE0B2E1A0931301B0931401AFD00895EA
:104DF00092D1ABE0B1E1A0931301B09314012ED096
:104E00000895A0915C01A3FFCFC3EDC1A0915C0107
:104E1000A3FFE5C33CC2A0915C01A3FFE7C33EC270
:104E2000A0915C01A3FF17C409C2A0915C01A3FF7C
:104E300077C44FC2A0915C01A3FF089557C2A0910F
:104E40005C01A3FF089562C200D0AFEFAEBDADB567
:104E5000A7FFFDCFAEB50895AA27F8CFA0915C01BA
:104E6000E0ECFEE4A13029F13A96A13811F13A962E
:104E7000A238F9F03A96A338E1F03A96A438C9F08E
:104E80003A96A838B1F03A96A93899F03A96AA38E5
:104E900081F03A96AB3869F03A96AC3851F03A96D0
:104EA000A23039F03A96A33021F03A96A43009F0B6
:104EB0003A964591463719F00E943E2CFACF089554
:104EC00028263729002A3737007632322816282636
:104ED0003729007638293B1D1628263729763829A8
:104EE0003B1E16282637297638292D2816282637DE
:104EF0002976292B3116211D1E300076292B3116DB
:104F00001D1C1E203076292B31161E1C20243076C5
:104F1000292B3116201C25223076292B3116241DF1
:104F2000251E30762A1626283229201D00762A16BC
:104F30002832291D007676762A1628322924007612
:104F4000767600333400282637290076A0915C015C
:104F5000EAE5FFE4A7FF3A96ACCF2B343732263987
:104F6000392A29763334002E32262C2A7676A091DF
:104F70005C01A7FD0895ACE1A09300020F900F9093
:104F800008952092590120925A010027009058015B
:104F90000E940127089520925A010091590103951A
:104FA000009359010E9401270895C8E3D1E00AE067
:104FB00029920A95E9F7E0911402F0911502E9505F
:104FC000F0443196E993F993FB01FF73FE5FC8E368
:104FD000D1E00081063139F0003011F40C94A32B9C
:104FE000C6DF0AE002C0C3DF0AC01191012E1F73A1
:104FF000199307FC02C00A95C1F70C94102731964B
:1050000001910F73063269F00C511AE0019F119162
:105010001F731C51100D103228F4109359010C9479
:10502000152705C000C0ACE1A093000208950191CE
:105030000F730133C1F701910F730133A1F7209270
:1050400059010E941527009159010395003270F70C
:1050500000935901F6CF8BDFC8E3D1E00AE0299233
:105060000A95E9F7F72FE62FF7FD11C0FF73FE5FF2
:10507000C8E3D1E00AE01191012E1F731D3041F009
:10508000199307FC02C00A95B1F70C9406270895FE
:10509000019107FDC8CF0C511AE0019F119117FF34
:1050A000C2CF1F731C51100D1032D0F7012FE12F0A
:1050B000E09359010E9401270090480107FE0C94DB
:1050C0000B27B1CF00915A01023088F4102F0091C4
:1050D00059015CE90A5010F05395FCCF0A5510FDB8
:1050E000502F00915A01039500935A0108950C30F6
:1050F00080F410915C0156E117FFF3CF00C0C6E4C5
:10510000D1E0C00FD21D08813882003410F4502F36
:10511000E8CF5527E6CFACE5ACBD96DE95DE2C9802
:1051200017ED10D00ED02C9A1C73143231F01C31B4
:1051300039F4A8E8A0935C010895A9E8A0935C0164
:10514000089511271EBD1DB517FFFDCF1EB508958B
:10515000F8DFF7DFF6DFF5CF009359010090580133
:10516000009159010F7100FC0062A0E8A09FD001DE
:105170000F7108952C9817EDE5DFE3DF2C9A17FFE8
:10518000F9CF0895F7DF2C9813E5DCDF1B2FDADF6A
:105190001A2FD8DFD6DF2C9AEDCFECDF2C9813E84E
:1051A000F4CFE8DF2C9814EDCDDFD2DFCADF1993FE
:1051B0002A95E1F72C9A0895DDDF2C9814E8C2DFD8
:1051C000C8DF00241FEFBEDF0A94E1F72C9A089590
:1051D000D1DF2C9814E8B6DFBCDF1991B3DF2A9534
:1051E000E1F72C9A0895C6DF103041F42AE006E179
:1051F000C8E4D1E009932A95E9F70895AFDFC2DF4B
:10520000C8E4D1E02CE0CDCF0FE1EFEFFFEF0F933B
:10521000EADF0F91C8E4D1E0A8E3B1E03AE01991E8
:105220001F3F11F4F02F07C02D91121721F43A956A
:10523000B1F7E02F0895031950F70895E5DFEF3F28
:1052400011F00E2F04C0FF3F09F41DC00F2F84DFA3
:10525000B3DFC8E3D1E02CE0BBDF9FDF2297E99109
:10526000F991C9E0D2E01296F03031F020E0B0DFE1
:1052700094DF1296FA95F8CFE03019F02E2FA8DFC0
:105280008CDF68940895ACE1A09300020895BCDF20
:10529000EF3F11F00E2F02C0689408955DDFC8E360
:1052A000D1E070DF2CE07DDF2297E991F991C9E030
:1052B000D2E01296F03031F065DF20E072DF129616
:1052C000FA95F8CFE03019F05DDF2E2F6ADF689491
:1052D000089510915901009158011F7100FD10624D
:1052E000A0E4A19FD00168DF58DF089537DF009167
:1052F0005B01A00FB21DA00FB21D44DF2227C0E04A
:10530000DFE34FDF12963EDF22274BCF27DF0091EE
:105310005B01A00FB21DA00FB21DC0E0DFE322278A
:1053200057DF3BDF1296222753DF37CF00271127A5
:1053300098012C9889DDBF73B064BEBDBF7387DD53
:105340003EBD85DD2EBD83DD1EBD81DD0EBD7FDD55
:10535000A5E9B83009F4A7E879DD002476DDAF3F90
:1053600011F40A94D9F70895EF93FF93E0E0F0E089
:10537000AE3F19F4FF91EF910895319711F065DD7B
:10538000F7CFFF91EF910F900F9030925C01D7C152
:10539000A3E5ACBDA4E0A0936001BAE02C9A55DD72
:1053A000BA95E9F7C0E0D0E1B0E0C0DFAF3F11F05F
:1053B000A0FD06C02197C1F720925C012C9A0895A8
:1053C0000AEA11E022273327B8E0B3DFA2FD08C0C4
:1053D0003BDD3ADDAA3A01F5A0E9A0935C0109C0E2
:1053E000B7E3A4DFB1E0A2DFA2FD39C0A2E8A09339
:1053F0005C01C0E0D0E8B7E399DFA0915C01A4FDB7
:1054000030E4B1E096DFA0FF0CC02197A1F702E0E5
:1054100000935C012C9A0895A4E0A0935C012C9A5F
:105420000895A0915C01A4FF10C0A3E8A0935C01C3
:10543000BAE37CDF0ADDAF9308DD07DD06DDAF915F
:10544000A6FF03C0A4E8A0935C01002712E0222776
:105450003327B0E16EDF2C9AA0E5ACBD0895C0E023
:10546000D0E8B1E063DFA0FF07C02197D1F703E0E8
:1054700000935C012C9A0895A1E8A0935C01E5CF0C
:1054800010E020E031E094E082E002E0100F221D05
:10549000321D019709F446C00027A0915C01A2FFCC
:1054A00007C0369527951795012F122F232F3327E5
:1054B000B1E13FDF59DFA0915C01A2FF07C0000FFF
:1054C000111F221F322F212F102F0027BCE0C8E40C
:1054D000D1E0BBDCA993BA95E1F7BBEFB5DCBA9597
:1054E000E9F72C9AC8E4D1E0EAE2F5E5BAE00990E0
:1054F0001590011451F6BA95D1F7B991E2E4F8E0AC
:10550000B03029F01E1B2F0B3209BA95F9CF02E0FB
:10551000100F221D321D10935D0120935E01309308
:105520005F01089520925C010895A6BD263D241DCB
:10553000B9A6B5AA452F42954F70445E0E943E2CF5
:10554000452F4F70445E0E943E2C089520925B01CF
:1055500010915D0120915E0130915F01A091580191
:10556000B2E4AB9F100D211D321DB8E0AB9F200DA2
:10557000311DA0915901AF71B2E4AB9F100D211DF7
:10558000321D00915B01000F100F221D321D0027FC
:10559000B0915C01B2FF0895369527951795012FBC
:1055A000122F232F33270895C8E4D1E0A0915C0186
:1055B000A7FF0FC0CBDFB1E1BCDED6DEBCE045DC2F
:1055C000A993BA95E1F7BBEF3FDCBA95E9F72C9ABE
:1055D0000895BAE0A6E1A993BA95E9F7089583D0B2
:1055E000EF3F21F4ABE1A09300020895E09359014D
:1055F000ADDFC8E4D1E0B1E19CDEB6DEBCE025DC85
:10560000A993BA95E1F7BBEF1FDCBA95E9F7E091F2
:105610005201F0915301C9E0D2E020925B01A091C8
:105620005B01A395A0935B0193DFB1E182DE9CDE79
:105630000024A2E01A2E09DCE215F20511F0A9936C
:10564000319703181208B9F7FFDB2C9AE215F2051F
:1056500009F0E5CF089547D0EF3F11F00E2F04C0B9
:10566000FF3F09F46CC00F2F0093590120925B019A
:105670006FDFB8E15EDEAEEFE9DBC8E3D1E0BCE0AE
:10568000A991E4DBBA95E1F7BBEFDEDBBA95E9F768
:10569000DBDBDBDBAF3FE9F72C9AE0914201F091D5
:1056A0004301C9E0D2E0A0915B01A395A0935B0107
:1056B0004FDFB8E13EDEAEEFC9DB0024A2E01A2ED8
:1056C000AFEFE215F20511F0A9913197BFDB031896
:1056D0001208B1F7B9DBB9DBAF3FE9F72C9AE21555
:1056E000F20509F7B7CF0FE1EFEFFFEF0093590194
:1056F0005BDFC8E4D1E0A8E3B1E03AE019911F3FD5
:1057000011F4F09159012D91121729F43A95B1F73E
:10571000E0915901089500915901031938F708954E
:1057200015DFB8E106DEAEEF91DBB0E08DDBBA95B8
:10573000E9F78ADB8ADBAF3FE9F72C9A0895ACE101
:10574000A09300020895F89421B8EB01D250A881EB
:1057500013D0A991A7FFFBCFC9E0D2E0E0911402DA
:10576000F0911502E850F044A99106D03197E1F785
:105770007894AFEFA1B90895B8E0BF93B4E0A7FD66
:10578000B9E0AA0F299ABF93AF93B2E0ACEE11979C
:10579000F1F700002998B2E0ABEE1197F1F7AF9165
:1057A000BF9100000000BA9569F7B9E1ACE5119727
:1057B000F1F7BF91BA9509F7089538E025D0A0E038
:1057C000B4E046EA73D04DEB71D044E26FD04DE1C6
:1057D0006DD0A5E0BDE0E6EDF8E544D00E94CD2611
:1057E00000C03092100120920601A0EFA093340275
:1057F00020923502A0910601A03021F4A09134023C
:10580000A030C1F708950895F894D2E0CDE706E7F7
:105810000993B8E1A0E23993AA95E9F70993BA95FB
:10582000C9F7ADE7B0E4A0930C02B0930D02A0EC71
:10583000A0933B0278940895A03210F0AA27B39564
:10584000B83108F0BB27CEE7D2E001E20B9FC00DD4
:10585000D11DCA0FD21D3883A395A0931301B09315
:1058600014010895359136FD0895E6DFFBCF3081B0
:105870003F73E2DF319137FD0895F9CFAF93BF93C6
:10588000CF93DF930F933F930F921F92A091130139
:10589000B0911401342F3F7BCFDF1F900F903F91C9
:1058A0000F91DF91CF91BF91AF910895F7EBE42F66
:1058B000EF7B58E07491709568E03327770F379548
:1058C000BBDF6A95D1F7F395A850B3955A9591F738
:1058D000B850A85F089508003B1C1B1E2400102828
:1058E00011002F1B3C34312B3726320008FFA4B7A0
:1058F000A0FF089524BE549A5C9A5198599A219811
:10590000299A239AA2E4A4BDA1E0A5BDA1E3A7BD65
:10591000A0E0B0E01197F1F7499B01C008950E9403
:10592000CD26A0915C01A3FF0895209258012092FA
:105930005901F894A0911101A370A13011F4A0E1D4
:10594000A2B90CE02BD0E8ECFBE557D01091580140
:105950005ED059D058D06AD056D0E4EEFBE54DD099
:1059600095D0C8E3D1E009910135B9F01127AAE03B
:10597000B991B03049F0B033D8F3BA33C8F7B05367
:105980001A9F102D1B0FF4CF043509F4A1C0073561
:1059900009F4C8C00235B9F69EC0089528E05C98A5
:1059A0003DEA3A95F1F700FD5C9A00FF5C98069598
:1059B0003AEA3A95F1F72A9500000000A1F75C9ABF
:1059C00030E03A950000E9F70895499BFECF36E5AF
:1059D0003A95F1F7112728E000E006953BEA3A9561
:1059E000F1F7499B0068000000002A95B1F73BEAF7
:1059F0003A95F1F7499912E008950591003011F0B8
:105A0000CDDFFBCF08950DE0C9DF0AE0C7CF0FE27D
:105A100003951456E8F7C2DF1C590FE203951A509C
:105A2000E8F7BCDF165F105D012FB8CF2092590157
:105A300010915901F2DF00E2B1DF0E940127C8E4B2
:105A4000D1E0A881A7FD0ED0A7FF15D0A0915901E4
:105A5000A395A032C1F2A0935901A0FD06D0A0FFEA
:105A6000D2DFE6CFE4EFFBE5C8CF1AE000E296DF35
:105A70001A95E1F70895BAE0E4E4FCE50990E00D39
:105A8000F21D04918BDFBA95B9F70895C8E3D1E010
:105A9000A0E028829ADF1130D1F00A30C1F00D3039
:105AA000B1F0083069F00032A8F3013608F0005276
:105AB000A03181F3A3950883219628826FDFEACF76
:105AC000A03041F3AA952197288268DFE3CF9BCFCE
:105AD0001093580136CF103220F5109359010E94CF
:105AE0000127C8E4D1E0A881A7FD2DCFE0E0FCE5C7
:105AF00084DF6BDF1030A9F4053199F4B0E051E098
:105B0000B0935B0197D9C0E0DFE3E4E03CD0EA95D5
:105B1000E9F7B0915B01B395B03291F704E03EDF55
:105B200054DF29C0103238F510935901EEE1FCE53D
:105B300064DFE0E0F0E0A0E0B5E01197F1F7319725
:105B4000D1F705E12BDFB0E0B0935B01C0E0DFE30C
:105B5000E4E02ED0EA9519F006E020DFFACF0E94AB
:105B60001F2706E01BDFB0915B01B395B03261F7F0
:105B70002CDF06E013DFE0E8A0E0B0E01197F1F7DA
:105B8000EA95D1F7DECE01E009DF052F07DF052F0B
:105B9000009504DF4427F0E80991400FFFDEFA95F5
:105BA000D9F7042FFBDE11DF063069F7539508950E
:105BB0000CDF0130E9F709DF08DFF0E806DF0993C1
:105BC000FA95E1F702DF08954158383120426F6FAE
:105BD000746C6F616465722056302E3235205441EA
:105BE00050452000434D442028512F542F572F5209
:105BF000293A20002D2D2D2D2D2D2D2D2D2D000060
:105C00000D0A537461727420584D4F44454D206401
:105C10006F776E6C6F6164206E6F772100000D0AE4
:105C20007374617274696E67207472616E736665F5
:105C30007220696E203130207365636F6E64732E3D
:105C40002E2E0000205F5F5F5F5F5F5F5F5F5F2200
:105C500026243A3F28293E3C3D2B2D2A2F3B2C2E33
:105C60003031323334353637383941424344454692
:105C70004748494A4B4C4D4E4F505152535455563C
:045C80005758595ABE
:10AF00000101010101012101010101010121810171
:10AF10000100002100110101010121D10101010104
